:100000000A128A11382F00308A000408840A8207F5
:1000100000344C34593443344134203453344F3455
:06002000463454340034A4
:100E700083010A128A11CE2F02300A128A117027BA
:100E80000A128A1128300A128A1170270A128A114E
:100E90000C300A128A1170270A128A110800F40015
:100EA000622F740884000A128A1103200A128A1120
:100EB0000A128A119F270A128A110130F30073085F
:100EC000F407622F740884000A128A1103200A12A0
:100ED0008A110038031D6D2F6E2F512F6F2F0800C0
:100EE000F2007208F0398312031388000811881584
:100EF0002130F1007630F000F00B7C2FF10B7C2FCD
:100F000064008312031388117208F0000330031089
:100F1000F00DFF3E031D872F0310700DF039880080
:100F2000081188152130F1007630F000F00B962F73
:100F3000F10B962F64008312031388110800F2004E
:100F40007208F039831203138800081588152130C0
:100F5000F1007630F000F00BAB2FF10BAB2F6400FB
:100F60008312031388117208F00003300310F00D90
:100F7000FF3E031DB62F0310700DF03988000815D1
:100F800088152130F1007630F000F00BC52FF10B01
:100F9000C52F6400831203138811080083160313FE
:100FA00088018312031388018316031387018312B8
:100FB000031387010A128A113C270A128A11E02FB3
:100FC00080300A128A1170270A128A1101300A121F
:100FD0008A114F270A128A111C300A128A117027AF
:100FE0000A128A112130F6007630F500F50BF62F43
:100FF000F60BF62F6400E02FE02F0A128A1100286A
:02400E003A3F37
:00000001FF
